{
  "contractName": "CordFire",
  "abi": [
    {
      "constant": true,
      "inputs": [],
      "name": "owner",
      "outputs": [
        {
          "name": "",
          "type": "address"
        }
      ],
      "payable": false,
      "stateMutability": "view",
      "type": "function"
    },
    {
      "anonymous": false,
      "inputs": [
        {
          "indexed": true,
          "name": "player",
          "type": "address"
        },
        {
          "indexed": false,
          "name": "cordsHash",
          "type": "string"
        }
      ],
      "name": "GameStart",
      "type": "event"
    },
    {
      "anonymous": false,
      "inputs": [
        {
          "indexed": true,
          "name": "player",
          "type": "address"
        },
        {
          "indexed": false,
          "name": "score",
          "type": "string"
        },
        {
          "indexed": false,
          "name": "time",
          "type": "string"
        }
      ],
      "name": "GameEnd",
      "type": "event"
    },
    {
      "anonymous": false,
      "inputs": [
        {
          "indexed": true,
          "name": "player",
          "type": "address"
        },
        {
          "indexed": false,
          "name": "msg",
          "type": "string"
        }
      ],
      "name": "ReentryWarning",
      "type": "event"
    },
    {
      "anonymous": false,
      "inputs": [
        {
          "indexed": false,
          "name": "flag",
          "type": "string"
        },
        {
          "indexed": false,
          "name": "sender",
          "type": "address"
        },
        {
          "indexed": false,
          "name": "aWei",
          "type": "uint256"
        }
      ],
      "name": "LogValue",
      "type": "event"
    },
    {
      "anonymous": false,
      "inputs": [
        {
          "indexed": false,
          "name": "flag",
          "type": "string"
        },
        {
          "indexed": false,
          "name": "sender",
          "type": "address"
        },
        {
          "indexed": false,
          "name": "msg",
          "type": "string"
        }
      ],
      "name": "LogMsg",
      "type": "event"
    },
    {
      "constant": false,
      "inputs": [],
      "name": "deposit",
      "outputs": [
        {
          "name": "addr",
          "type": "address"
        },
        {
          "name": "amount",
          "type": "uint256"
        }
      ],
      "payable": true,
      "stateMutability": "payable",
      "type": "function"
    },
    {
      "constant": false,
      "inputs": [],
      "name": "withDrawDeposit",
      "outputs": [
        {
          "name": "successful",
          "type": "bool"
        }
      ],
      "payable": false,
      "stateMutability": "nonpayable",
      "type": "function"
    },
    {
      "constant": false,
      "inputs": [
        {
          "name": "opponent",
          "type": "address"
        },
        {
          "name": "cordsHash",
          "type": "string"
        }
      ],
      "name": "startGame",
      "outputs": [
        {
          "name": "successful",
          "type": "bool"
        }
      ],
      "payable": false,
      "stateMutability": "nonpayable",
      "type": "function"
    }
  ],
  "bytecode": "0x60806040526102586000556103e860015533600760006101000a81548173ffffffffffffffffffffffffffffffffffffffff021916908373ffffffffffffffffffffffffffffffffffffffff16021790555034801561005d57600080fd5b50610af28061006d6000396000f300608060405260043610610062576000357c0100000000000000000000000000000000000000000000000000000000900463ffffffff1680635f5169cd146100675780638da5cb5b14610096578063d0e30db0146100ed578063fe0054711461013e575b600080fd5b34801561007357600080fd5b5061007c6101df565b604051808215151515815260200191505060405180910390f35b3480156100a257600080fd5b506100ab6102b8565b604051808273ffffffffffffffffffffffffffffffffffffffff1673ffffffffffffffffffffffffffffffffffffffff16815260200191505060405180910390f35b6100f56102de565b604051808373ffffffffffffffffffffffffffffffffffffffff1673ffffffffffffffffffffffffffffffffffffffff1681526020018281526020019250505060405180910390f35b34801561014a57600080fd5b506101c5600480360381019080803573ffffffffffffffffffffffffffffffffffffffff169060200190929190803590602001908201803590602001908080601f0160208091040260200160405190810160405280939291908181526020018383808284378201915050505050509192919290505050610461565b604051808215151515815260200191505060405180910390f35b600080600460003373ffffffffffffffffffffffffffffffffffffffff1673ffffffffffffffffffffffffffffffffffffffff1681526020019081526020016000205490506000600460003373ffffffffffffffffffffffffffffffffffffffff1673ffffffffffffffffffffffffffffffffffffffff168152602001908152602001600020819055503373ffffffffffffffffffffffffffffffffffffffff166108fc829081150290604051600060405180830381858888f193505050501580156102af573d6000803e3d6000fd5b50600191505090565b600760009054906101000a900473ffffffffffffffffffffffffffffffffffffffff1681565b6000806000600460003373ffffffffffffffffffffffffffffffffffffffff1673ffffffffffffffffffffffffffffffffffffffff168152602001908152602001600020549050348101600460003373ffffffffffffffffffffffffffffffffffffffff1673ffffffffffffffffffffffffffffffffffffffff168152602001908152602001600020819055503073ffffffffffffffffffffffffffffffffffffffff166108fc349081150290604051600060405180830381858888f193505050501580156103b1573d6000803e3d6000fd5b507f3b586a20466fad2da2c7e5ef3b703f64686f671579e497988b4f7c6d7976876a333460405180806020018473ffffffffffffffffffffffffffffffffffffffff1673ffffffffffffffffffffffffffffffffffffffff1681526020018381526020018281038252600d8152602001807f4163636570744465706f73697400000000000000000000000000000000000000815250602001935050505060405180910390a1333492509250509091565b600061046b6109d6565b7f0ef03d632ecb85aba42dd0a80dab2f80c55aec4beeeb298492a50de67c9fbfae8460405180806020018373ffffffffffffffffffffffffffffffffffffffff1673ffffffffffffffffffffffffffffffffffffffff168152602001806020018381038352600e8152602001807f6f70706f6e656e743a20696e666f000000000000000000000000000000000000815250602001838103825260038152602001807f2021200000000000000000000000000000000000000000000000000000000000815250602001935050505060405180910390a1600154600460003373ffffffffffffffffffffffffffffffffffffffff1673ffffffffffffffffffffffffffffffffffffffff16815260200190815260200160002054101561059257600091506109cf565b600360003373ffffffffffffffffffffffffffffffffffffffff1673ffffffffffffffffffffffffffffffffffffffff16815260200190815260200160002060806040519081016040529081600082018054600181600116156101000203166002900480601f0160208091040260200160405190810160405280929190818152602001828054600181600116156101000203166002900480156106765780601f1061064b57610100808354040283529160200191610676565b820191906000526020600020905b81548152906001019060200180831161065957829003601f168201915b50505050508152602001600182015481526020016002820160009054906101000a90047f0100000000000000000000000000000000000000000000000000000000000000027effffffffffffffffffffffffffffffffffffffffffffffffffffffffffffff19167effffffffffffffffffffffffffffffffffffffffffffffffffffffffffffff19168152602001600382015481525050905060017f01000000000000000000000000000000000000000000000000000000000000000281604001517effffffffffffffffffffffffffffffffffffffffffffffffffffffffffffff191614801561076e575060005481602001514203105b156107fb573373ffffffffffffffffffffffffffffffffffffffff167f4fc69d8ee9f9ff44f40234b4afde890ff03cbd5ca2cdd44c3381bb1d5753ce636040518080602001828103825260198152602001807fe8bf98e69caae98080e587bae4b88ae6aca1e5afb9e5b1807e0000000000000081525060200191505060405180910390a2600091506109cf565b60806040519081016040528084815260200142815260200160007f0100000000000000000000000000000000000000000000000000000000000000027effffffffffffffffffffffffffffffffffffffffffffffffffffffffffffff191681526020016000815250600360003373ffffffffffffffffffffffffffffffffffffffff1673ffffffffffffffffffffffffffffffffffffffff16815260200190815260200160002060008201518160000190805190602001906108be929190610a21565b506020820151816001015560408201518160020160006101000a81548160ff02191690837f010000000000000000000000000000000000000000000000000000000000000090040217905550606082015181600301559050503373ffffffffffffffffffffffffffffffffffffffff167f222a0a5588c76b70db3250518b073f4fc2d93f3d39abb66855dd5510472e485b846040518080602001828103825283818151815260200191508051906020019080838360005b83811015610990578082015181840152602081019050610975565b50505050905090810190601f1680156109bd5780820380516001836020036101000a031916815260200191505b509250505060405180910390a2600191505b5092915050565b608060405190810160405280606081526020016000815260200160007effffffffffffffffffffffffffffffffffffffffffffffffffffffffffffff19168152602001600081525090565b828054600181600116156101000203166002900490600052602060002090601f016020900481019282601f10610a6257805160ff1916838001178555610a90565b82800160010185558215610a90579182015b82811115610a8f578251825591602001919060010190610a74565b5b509050610a9d9190610aa1565b5090565b610ac391905b80821115610abf576000816000905550600101610aa7565b5090565b905600a165627a7a72305820b2234b233d9a18e0ad28626b5b949118cbc57c66e8afb5fb3083ac25c4e4f6660029",
  "source": "pragma solidity ^0.4.18;\n\n\ncontract CordFire {\n    \n    uint TIME_DELTA = 10*60;\n\n    uint GAME_COST = 1000;\n    \n    struct OneGame {\n        string  cords; // 开赛的布局的hash值 H('xxx(1,2),(3,4),(5,6)')\n        uint startTime;        \n        byte status; // 0：not begin ; 1: begined; 2: normal ended!\n        uint score;\n    }\n    \n    mapping(address =>OneGame) private GamesHistory;\n    mapping(address => OneGame) private GamesOngoing;  \n\n    mapping(address => uint) private Deposits;  \n\n    mapping(uint => uint) private playerScore;\n    mapping(uint => bool) private unmatched_player; // (A,B)\n    // 这里，有2中方法：\n    // 1方法：由中心化服务器负责配对，然后发送双发的布局\n    // 2方法：由A发送 (A,B)[(1,2,e),(3,4,n),(5,6,w)]'数据，\n    //          B发送(B,A)[(1,2,e),(3,4,n),(5,6,w)]'数据,\n\n\n    event GameStart(address indexed player, string cordsHash); //logging the event after task gets added.\n    \n    event GameEnd(address indexed player, string score, string time); //logging the event after task gets added.\n    \n    event ReentryWarning(address indexed player, string msg);\n\n    event LogValue(string flag,  address sender, uint aWei );\n    event LogMsg(string flag,  address sender, string msg );\n\n    address public owner = msg.sender;\n    // constructor() public payable { owner = msg.sender; }\n\n    modifier ownerOnly { require(owner == msg.sender); _; }\n\n\n    function getNow() \n        view private \n        returns (uint256) {\n            return now;   // 是unixtime， 以秒为单位！ \n        }\n\n    /*\n        允许多存， 每次只扣除固定的额度\n    */\n    function deposit() \n        public payable\n        returns(address addr, uint amount) {\n            uint prev = Deposits[msg.sender];\n            Deposits[msg.sender] = prev + msg.value;    // TODO: use SafeMath lib\n            address(this).transfer(msg.value);\n            emit LogValue(\"AcceptDeposit\",  msg.sender, msg.value );\n            return (msg.sender, msg.value );\n        }\n\n\n    /*\n        取出\n    */\n    function withDrawDeposit() \n        public \n        returns (bool successful) {\n            uint left = Deposits[msg.sender];\n            Deposits[msg.sender] = 0;\n            address(msg.sender).transfer(left);\n            return true;\n        }\n\n    /**\n        Maybe this should be call by centerize server \n        \n        1) 在 Remix上：用不带括号的 0xb1e9f54bd8cf4d402c2cd384293e68be6accdd5a 和  \"hello\" 能调用\n            但是把 “hello” 改为  \"abcd[(1,2,w),(3,4,e),(5,6,n)\" 就不行了！ \n            但是，用hash值没问题： \"V/0Bsfc/QOYxuTRMBzmvltZekY6Ge1F6RJ2GCKXDIdY=\"\n     */\n     \n    function startGame(address opponent,string cordsHash)//function for adding the task.\n            public\n            returns (bool successful) { \n\n            emit LogMsg('opponent: info', opponent, ' ! '); // 测试用\n\n        if ( Deposits[msg.sender] < GAME_COST ) {\n            \n            return false;\n        }                \n        OneGame memory onGoingGame = GamesOngoing[msg.sender];\n        if (onGoingGame.status == 1 && (now - onGoingGame.startTime) < TIME_DELTA ) { // \n            emit ReentryWarning(msg.sender, \"还未退出上次对局~\");\n            return false;\n        }\n        else {\n            GamesOngoing[msg.sender] = OneGame(cordsHash, now, 0, 0);\n            emit GameStart(msg.sender, cordsHash);\n            return true;\n        }\n    }\n\n   \n}\n",
  "sourcePath": "/Users/broozewang/Programming/Drill/miix_hackson/tron-dapp-demo/contracts/CordFire.sol",
  "compiler": {
    "name": "solc",
    "version": "0.4.24-develop.2018.8.28+commit.3ba0cdec.mod.Emscripten.clang"
  },
  "schemaVersion": "2.0.1",
  "updatedAt": "2019-01-13T02:36:10.109Z"
}